{
  "_format": "hh-sol-artifact-1",
  "contractName": "StealthSigner",
  "sourceName": "contracts/StealthSigner.sol",
  "abi": [
    {
      "inputs": [
        {
          "internalType": "address",
          "name": "otherEnd",
          "type": "address"
        }
      ],
      "stateMutability": "payable",
      "type": "constructor"
    },
    {
      "inputs": [],
      "name": "DER_Split_Error",
      "type": "error"
    },
    {
      "inputs": [],
      "name": "expmod_Error",
      "type": "error"
    },
    {
      "inputs": [],
      "name": "k256Decompress_Invalid_Length_Error",
      "type": "error"
    },
    {
      "inputs": [],
      "name": "k256DeriveY_Invalid_Prefix_Error",
      "type": "error"
    },
    {
      "inputs": [],
      "name": "recoverV_Error",
      "type": "error"
    },
    {
      "anonymous": false,
      "inputs": [
        {
          "indexed": false,
          "internalType": "uint256",
          "name": "example",
          "type": "uint256"
        }
      ],
      "name": "TestEvent",
      "type": "event"
    },
    {
      "inputs": [],
      "name": "DOMAIN_SEPARATOR",
      "outputs": [
        {
          "internalType": "bytes32",
          "name": "",
          "type": "bytes32"
        }
      ],
      "stateMutability": "view",
      "type": "function"
    },
    {
      "inputs": [],
      "name": "EIP712_DOMAIN_TYPEHASH",
      "outputs": [
        {
          "internalType": "bytes32",
          "name": "",
          "type": "bytes32"
        }
      ],
      "stateMutability": "view",
      "type": "function"
    },
    {
      "inputs": [],
      "name": "SIGNIN_TYPE",
      "outputs": [
        {
          "internalType": "string",
          "name": "",
          "type": "string"
        }
      ],
      "stateMutability": "view",
      "type": "function"
    },
    {
      "inputs": [],
      "name": "SIGNIN_TYPEHASH",
      "outputs": [
        {
          "internalType": "bytes32",
          "name": "",
          "type": "bytes32"
        }
      ],
      "stateMutability": "view",
      "type": "function"
    },
    {
      "inputs": [
        {
          "internalType": "uint256",
          "name": "example",
          "type": "uint256"
        }
      ],
      "name": "calledByOurselves",
      "outputs": [],
      "stateMutability": "nonpayable",
      "type": "function"
    },
    {
      "inputs": [
        {
          "internalType": "string",
          "name": "metaAddress",
          "type": "string"
        },
        {
          "internalType": "uint32",
          "name": "k",
          "type": "uint32"
        },
        {
          "internalType": "bytes",
          "name": "ephemeralPub",
          "type": "bytes"
        },
        {
          "internalType": "bytes1",
          "name": "viewHint",
          "type": "bytes1"
        }
      ],
      "name": "checkStealthAddress",
      "outputs": [
        {
          "internalType": "address",
          "name": "stealthAddress",
          "type": "address"
        }
      ],
      "stateMutability": "view",
      "type": "function"
    },
    {
      "inputs": [
        {
          "components": [
            {
              "internalType": "address",
              "name": "user",
              "type": "address"
            },
            {
              "internalType": "uint32",
              "name": "time",
              "type": "uint32"
            },
            {
              "components": [
                {
                  "internalType": "bytes32",
                  "name": "r",
                  "type": "bytes32"
                },
                {
                  "internalType": "bytes32",
                  "name": "s",
                  "type": "bytes32"
                },
                {
                  "internalType": "uint256",
                  "name": "v",
                  "type": "uint256"
                }
              ],
              "internalType": "struct SignatureRSV",
              "name": "rsv",
              "type": "tuple"
            }
          ],
          "internalType": "struct StealthSigner.SignIn",
          "name": "auth",
          "type": "tuple"
        },
        {
          "internalType": "string",
          "name": "metaAddress",
          "type": "string"
        },
        {
          "internalType": "uint32",
          "name": "k",
          "type": "uint32"
        },
        {
          "internalType": "bytes",
          "name": "ephemeralPub",
          "type": "bytes"
        }
      ],
      "name": "computeStealthKey",
      "outputs": [
        {
          "internalType": "bytes32",
          "name": "stealthKey",
          "type": "bytes32"
        },
        {
          "internalType": "address",
          "name": "stealthAddress",
          "type": "address"
        }
      ],
      "stateMutability": "view",
      "type": "function"
    },
    {
      "inputs": [
        {
          "components": [
            {
              "internalType": "address",
              "name": "user",
              "type": "address"
            },
            {
              "internalType": "uint32",
              "name": "time",
              "type": "uint32"
            },
            {
              "components": [
                {
                  "internalType": "bytes32",
                  "name": "r",
                  "type": "bytes32"
                },
                {
                  "internalType": "bytes32",
                  "name": "s",
                  "type": "bytes32"
                },
                {
                  "internalType": "uint256",
                  "name": "v",
                  "type": "uint256"
                }
              ],
              "internalType": "struct SignatureRSV",
              "name": "rsv",
              "type": "tuple"
            }
          ],
          "internalType": "struct StealthSigner.SignIn",
          "name": "auth",
          "type": "tuple"
        },
        {
          "internalType": "string",
          "name": "metaAddress",
          "type": "string"
        },
        {
          "internalType": "uint32",
          "name": "k",
          "type": "uint32"
        },
        {
          "internalType": "bytes",
          "name": "ephemeralPub",
          "type": "bytes"
        },
        {
          "internalType": "uint64",
          "name": "nonce",
          "type": "uint64"
        },
        {
          "internalType": "uint256",
          "name": "gasPrice",
          "type": "uint256"
        },
        {
          "internalType": "uint256",
          "name": "chainId",
          "type": "uint256"
        }
      ],
      "name": "createTransaction",
      "outputs": [
        {
          "internalType": "bytes",
          "name": "",
          "type": "bytes"
        }
      ],
      "stateMutability": "view",
      "type": "function"
    },
    {
      "inputs": [
        {
          "internalType": "string",
          "name": "metaAddress",
          "type": "string"
        },
        {
          "internalType": "uint32",
          "name": "k",
          "type": "uint32"
        }
      ],
      "name": "generateStealthAddress",
      "outputs": [
        {
          "internalType": "address",
          "name": "stealthAddress",
          "type": "address"
        },
        {
          "internalType": "bytes",
          "name": "ephemeralPub",
          "type": "bytes"
        },
        {
          "internalType": "bytes1",
          "name": "viewHint",
          "type": "bytes1"
        }
      ],
      "stateMutability": "view",
      "type": "function"
    },
    {
      "inputs": [
        {
          "components": [
            {
              "internalType": "address",
              "name": "user",
              "type": "address"
            },
            {
              "internalType": "uint32",
              "name": "time",
              "type": "uint32"
            },
            {
              "components": [
                {
                  "internalType": "bytes32",
                  "name": "r",
                  "type": "bytes32"
                },
                {
                  "internalType": "bytes32",
                  "name": "s",
                  "type": "bytes32"
                },
                {
                  "internalType": "uint256",
                  "name": "v",
                  "type": "uint256"
                }
              ],
              "internalType": "struct SignatureRSV",
              "name": "rsv",
              "type": "tuple"
            }
          ],
          "internalType": "struct StealthSigner.SignIn",
          "name": "auth",
          "type": "tuple"
        },
        {
          "internalType": "uint256",
          "name": "index",
          "type": "uint256"
        }
      ],
      "name": "getMetaAddress",
      "outputs": [
        {
          "internalType": "string",
          "name": "metaAddress",
          "type": "string"
        },
        {
          "internalType": "bytes",
          "name": "spendPub",
          "type": "bytes"
        },
        {
          "internalType": "bytes",
          "name": "viewingPub",
          "type": "bytes"
        }
      ],
      "stateMutability": "view",
      "type": "function"
    },
    {
      "inputs": [
        {
          "components": [
            {
              "internalType": "address",
              "name": "user",
              "type": "address"
            },
            {
              "internalType": "uint32",
              "name": "time",
              "type": "uint32"
            },
            {
              "components": [
                {
                  "internalType": "bytes32",
                  "name": "r",
                  "type": "bytes32"
                },
                {
                  "internalType": "bytes32",
                  "name": "s",
                  "type": "bytes32"
                },
                {
                  "internalType": "uint256",
                  "name": "v",
                  "type": "uint256"
                }
              ],
              "internalType": "struct SignatureRSV",
              "name": "rsv",
              "type": "tuple"
            }
          ],
          "internalType": "struct StealthSigner.SignIn",
          "name": "auth",
          "type": "tuple"
        }
      ],
      "name": "register",
      "outputs": [],
      "stateMutability": "nonpayable",
      "type": "function"
    }
  ],
  "bytecode": "0x60a06040526020613dc8803803809161001782610216565b60a039126101fb5760a0516001600160a01b038116036101fb57604080517f8b73c3c69bb8fe3d512ecc4cf759cc79239f7b179b0ffacaa9a75d522b39400f602082019081527fb5a3263d2d461072053ad1275d5cebc715eac557396f6c32f97ea05458c843c8928201929092527fc89efdaa54c0f20c7adf612882df0950f5a951637e0307cdcb4c672f298b8bc660608201524660808201523060a08201526100ce8160c081015b03601f198101835282610241565b5190206080526101c76101296101876100e5610622565b9061015b6100f1610622565b92909361013d6101008661082e565b61012f61010c8561082e565b604051680e6e874cae8d07460f60bb1b60208201529a8b93602985015b90610298565b03601f198101895288610241565b610145610264565b9182526020820152610156866102af565b610387565b610163610264565b91825260208201526101563360018060a01b03166000526001602052604060002090565b6101b333610194836102d5565b80546001600160a01b0319166001600160a01b03909216919091179055565b336000908152600360205260409020610487565b60405161334d9081610a7b823960805181818161021e015281816103f8015281816104af015281816107f00152610d290152f35b600080fd5b634e487b7160e01b600052604160045260246000fd5b60a0601f91909101601f19168101906001600160401b0382119082101761023c57604052565b610200565b601f909101601f19168101906001600160401b0382119082101761023c57604052565b60405190610273604083610241565b565b60005b8381106102885750506000910152565b8181015183820152602001610278565b906102ab60209282815194859201610275565b0190565b60206102c8918160405193828580945193849201610275565b8101600081520301902090565b60206102ee918160405193828580945193849201610275565b8101600281520301902090565b90600182811c9216801561032b575b602083101461031557565b634e487b7160e01b600052602260045260246000fd5b91607f169161030a565b601f821161034257505050565b6000526020600020906020601f840160051c8301931061037d575b601f0160051c01905b818110610371575050565b60008155600101610366565b909150819061035d565b81518051909392906001600160401b03811161023c576103b1816103ab85546102fb565b85610335565b6020601f82116001146103fe5781602093926103e99260019697986000926103f3575b50508160011b916000199060031b1c19161790565b84555b0151910155565b0151905038806103d4565b601f1982169061041385600052602060002090565b9160005b8181106104595750918391600196979860209695889510610440575b505050811b0184556103ec565b015160001960f88460031b161c19169055388080610433565b9192602060018192868c015181550194019201610417565b634e487b7160e01b600052603260045260246000fd5b9190918054906801000000000000000082101561023c576001820180825582101561057657600052602060002001825160018060401b03811161023c576104d8816104d284546102fb565b84610335565b6020601f821160011461050d5781906105099394956000926103f35750508160011b916000199060031b1c19161790565b9055565b601f1982169061052284600052602060002090565b9160005b81811061055e57509583600195969710610545575b505050811b019055565b015160001960f88460031b161c1916905538808061053b565b9192602060018192868b015181550194019201610526565b610471565b6001600160401b03811161023c57601f01601f191660200190565b6020815191015190602081106105aa575090565b6000199060200360031b1b1690565b8051156105765760200190565b908151811015610576570160200190565b634e487b7160e01b600052601160045260246000fd5b70014551231950b75fc4402da1732fc9bebe19039070014551231950b75fc4402da1732fc9bebe19821161061d57565b6105d7565b6020906000806040516106358582610241565b818152604051610659816100c08882019489865260408084015260608301906108ed565b51907301000000000000000000000000000000000000015afa9061067b610912565b91156107365761069361068d83610596565b926109d0565b508093600360ff6106d56106cf6106a9866105b9565b517fff000000000000000000000000000000000000000000000000000000000000001690565b60f81c90565b16146106df575050565b9193509160216107116100c061070c6106fa610733956105ed565b60405192839188830160209181520190565b610596565b930151916100c06040519384928301602191600160f91b825260018201520190565b91565b60405162461bcd60e51b815260048101849052601360248201527f72616e646f6d42797465733a206661696c6564000000000000000000000000006044820152606490fd5b908160011b918083046002149015171561061d57565b9061079b8261057b565b6107a86040519182610241565b82815280926107b9601f199161057b565b0190602036910137565b604051906107d2604083610241565b601082526f181899199a1a9b1b9c1cb0b131b232b360811b6020830152565b634e487b7160e01b600052601260045260246000fd5b8115610811570490565b6107f1565b8115610811570690565b906001820180921161061d57565b9081518060011b908082046002149015171561061d5761084d90610791565b6108556107c3565b9260005b81518110156108e6578061088f6106a961088961087e6106cf6106a9600197896105c6565b60ff8a519116610807565b886105c6565b6108a661089b8361077b565b9160001a91866105c6565b536108cb6106a96108896108c06106cf6106a986896105c6565b60ff8a519116610816565b6108df61089b6108da8461077b565b610820565b5301610859565b5090925050565b9060209161090681518092818552858086019101610275565b601f01601f1916010190565b3d1561093d573d906109238261057b565b916109316040519384610241565b82523d6000602084013e565b606090565b81601f820112156101fb5780516109588161057b565b926109666040519485610241565b818452602082840101116101fb576109849160208085019101610275565b90565b9190916040818403126101fb5780516001600160401b0381116101fb57836109b0918301610942565b60208201519093906001600160401b0381116101fb576109849201610942565b600080916040516109f7816100c060208201946004865260408084015260608301906108ed565b51907301000000000000000000000000000000000000055afa610a18610912565b9015610a355780602080610a3193518301019101610987565b9091565b60405162461bcd60e51b815260206004820152601b60248201527f67656e207369676e696e67206b6579706169723a206661696c656400000000006044820152606490fdfe6080604052600436101561001257600080fd5b60003560e01c8063033c9c62146100c75780632f51a768146100c25780633644e515146100bd578063383ccf98146100b857806351578ed6146100b3578063897bb3a8146100ae578063c7977be7146100a9578063c7d480fb146100a4578063c80243a21461009f578063dbe0a8561461009a5763f01593a91461009557600080fd5b610a94565b6108bd565b610797565b610767565b610631565b6105f1565b610556565b610452565b6103e0565b61033d565b61011e565b60031960a09101126100dd57600490565b600080fd5b9181601f840112156100dd5782359167ffffffffffffffff83116100dd57602083818601950101116100dd57565b63ffffffff8116036100dd57565b346100dd576101006003193601126100dd57610139366100cc565b60a43567ffffffffffffffff81116100dd576101599036906004016100e2565b9060c43561016681610110565b60e43567ffffffffffffffff81116100dd576101869036906004016100e2565b939092602060008188016101b261019c82610abd565b63ffffffff6101aa42610add565b911611610bae565b6101ba610a82565b9061020a6101d06101ca8c610bb5565b92610abd565b604080518781019586526001600160a01b03909416602086015263ffffffff9091169084015281606084015b03601f1981018352826106bf565b51902060405161190160f01b8482019081527f00000000000000000000000000000000000000000000000000000000000000006002820152602281019290925261025781604284016101fc565b5190206040805191825260808a81013560ff166020840152818b0135918301919091526060808b0135908301528280529060015afa156102dc576102bc956102b76000516001600160a01b03806102ad85610bb5565b9216911614610bd5565b610c9d565b604080519283526001600160a01b039091166020830152819081015b0390f35b610bc9565b60005b8381106102f45750506000910152565b81810151838201526020016102e4565b90601f19601f602093610322815180928187528780880191016102e1565b0116010190565b90602061033a928181520190610304565b90565b346100dd576101606003193601126100dd57610358366100cc565b60a43567ffffffffffffffff81116100dd576103789036906004016100e2565b909160c4359261038784610110565b60e43567ffffffffffffffff81116100dd576103a79036906004016100e2565b610104359167ffffffffffffffff831683036100dd576102d8966103d49661012435956101443597610ce2565b60405191829182610329565b346100dd5760006003193601126100dd5760206040517f00000000000000000000000000000000000000000000000000000000000000008152f35b916104449061043661033a9593606086526060860190610304565b908482036020860152610304565b916040818403910152610304565b346100dd5760c06003193601126100dd5761046c366100cc565b60a435906020600081830161048361019c82610abd565b61048b610a82565b9061049b6101d06101ca87610bb5565b51902060405161190160f01b8482019081527f0000000000000000000000000000000000000000000000000000000000000000600282015260228101929092526104e881604284016101fc565b5190206040805191825260808581013560ff1660208401528186013591830191909152606080860135908301528280529060015afa156102dc576102d891610547916105426000516001600160a01b03806102ad85610bb5565b611099565b6040939193519384938461041b565b346100dd5760806003193601126100dd5760043567ffffffffffffffff81116100dd576105879036906004016100e2565b9060243561059481610110565b60443567ffffffffffffffff81116100dd576105b49036906004016100e2565b90606435926001600160f81b0319841684036100dd576102d8956105d795611240565b6040516001600160a01b0390911681529081906020820190565b346100dd5760206003193601126100dd577f1440c4dd67b4344ea1905ec0318995133b550f168b4ee959a0da6b503d7d24146020600435604051908152a1005b346100dd5760006003193601126100dd5760206040517f8b73c3c69bb8fe3d512ecc4cf759cc79239f7b179b0ffacaa9a75d522b39400f8152f35b634e487b7160e01b600052604160045260246000fd5b6040810190811067ffffffffffffffff82111761069e57604052565b61066c565b6060810190811067ffffffffffffffff82111761069e57604052565b90601f601f19910116810190811067ffffffffffffffff82111761069e57604052565b604051906106f160e0836106bf565b565b604051906106f16040836106bf565b906106f160405192836106bf565b67ffffffffffffffff811161069e57601f01601f191660200190565b6040519061073b6040836106bf565b602082527f5369676e496e286164647265737320757365722c75696e7433322074696d65296020830152565b346100dd5760006003193601126100dd576102d861078361072c565b604051918291602083526020830190610304565b346100dd5760a06003193601126100dd576107b1366100cc565b602060008183016107c461019c82610abd565b6107cc610a82565b906107dc6101d06101ca87610bb5565b51902060405161190160f01b8482019081527f00000000000000000000000000000000000000000000000000000000000000006002820152602281019290925261082981604284016101fc565b5190206040805191825260808581013560ff1660208401528186013591830191909152606080860135908301528280529060015afa156102dc576108849061087f6000516001600160a01b03806102ad85610bb5565b6115d9565b005b916108b66001600160f81b0319916001600160a01b03604094979697168552606060208601526060850190610304565b9416910152565b346100dd5760406003193601126100dd5760043567ffffffffffffffff81116100dd576108ee9036906004016100e2565b90602435906108fc82610110565b6109068382610c20565b61090f9061101a565b6020810151151561091f9061104e565b519261092a91610c39565b546001600160a01b0316600090815260016020526040902061094b9061101a565b6020810151151561095b9061104e565b5190610965611dc5565b909361097090611b38565b90610979611739565b8282610983611774565b9061098d93612082565b61099692611ca1565b60408051602081019384529081019190915260e09290921b7fffffffff0000000000000000000000000000000000000000000000000000000016606083015260448252906109e56064826106bf565b51902090610a0670014551231950b75fc4402da1732fc9bebe198310611191565b610a0f82611227565b610a18906124a8565b50610a2290611b38565b9091610a2d90611b38565b610a379391612554565b6040805160208101938452808201929092528152610a566060826106bf565b5190206001600160a01b03166001600160a01b031660405192839260001a60f81b906102d89284610886565b610a8a61072c565b6020815191012090565b346100dd5760006003193601126100dd576020610aaf61072c565b818151910120604051908152f35b3561033a81610110565b634e487b7160e01b600052601160045260246000fd5b907ffffffffffffffffffffffffffffffffffffffffffffffffffffffffffffeae808201918211610b0a57565b610ac7565b907fffffffffffffffffffffffffffffffffffffffffffffffffffffffffffffffe58201918211610b0a57565b6401000003d01903906401000003d0198211610b0a57565b70014551231950b75fc4402da1732fc9bebe19039070014551231950b75fc4402da1732fc9bebe198211610b0a57565b6020039060208211610b0a57565b906000198201918211610b0a57565b91908203918211610b0a57565b156100dd57565b356001600160a01b03811681036100dd5790565b6040513d6000823e3d90fd5b15610bdc57565b606460405162461bcd60e51b815260206004820152600f60248201527f496e76616c6964205369676e2d496e00000000000000000000000000000000006044820152fd5b6020908260405193849283378101600081520301902090565b6020908260405193849283378101600281520301902090565b15610c5957565b606460405162461bcd60e51b815260206004820152601160248201527f556e617574686f72697a656420757365720000000000000000000000000000006044820152fd5b90610cd9610cde96959493926001600160a01b03610cd281604051878782376020818981016002815203019020541692610bb5565b1614610c52565b6117c5565b9091565b9796959493929190602060008a828101610cfe61019c82610abd565b610d156101d06101ca610d0f610a82565b94610bb5565b51902060405161190160f01b8482019081527f000000000000000000000000000000000000000000000000000000000000000060028201526022810192909252610d6281604284016101fc565b5190206040805191825260808d81013560ff166020840152818e0135918301919091526060808e0135908301528280529060015afa156102dc5761033a98610db86000516001600160a01b03806102ad85610bb5565b9661033a98610e07610e9d98996001600160a01b03610dff610df3610ded610de08a8a610c39565b546001600160a01b031690565b93610bb5565b6001600160a01b031690565b911614610c52565b6040517f897bb3a80000000000000000000000000000000000000000000000000000000060208201526024810183905290610e4f82604481015b03601f1981018452836106bf565b80610ea2575046915b610e73610e636106e2565b67ffffffffffffffff909b168b52565b60208a0152620f424060408a01523060608a0152600060808a015260a089015260c08801526117c5565b611915565b91610e58565b634e487b7160e01b600052603260045260246000fd5b8054821015610ed65760005260206000200190600090565b610ea8565b90600182811c92168015610f0b575b6020831014610ef557565b634e487b7160e01b600052602260045260246000fd5b91607f1691610eea565b60009291815491610f2583610edb565b8083529260018116908115610f7b5750600114610f4157505050565b60009081526020812093945091925b838310610f61575060209250010190565b600181602092949394548385870101520191019190610f50565b905060209495507fffffffffffffffffffffffffffffffffffffffffffffffffffffffffffffff0091509291921683830152151560051b010190565b90610fca602092828151948592016102e1565b0190565b6020610fe79181604051938285809451938492016102e1565b8101600081520301902090565b602061100d9181604051938285809451938492016102e1565b8101600281520301902090565b9060405161102781610682565b6020600182946040516110458161103e8185610f15565b03826106bf565b84520154910152565b1561105557565b606460405162461bcd60e51b815260206004820152601e60248201527f6d65746141646472657373206e6f7420726567697374657265642079657400006044820152fd5b6110dc6110c86110d594936001600160a01b036110b585610bb5565b1660005260036020526040600020610ebe565b5060405194858092610f15565b03846106bf565b6111476111426111296110ee86610fce565b61112260016040519261110084610682565b6040516111118161103e8185610f15565b84520154806020840152151561104e565b5193610bb5565b6001600160a01b03166000526001602052604060002090565b61101a565b6111566020820151151561104e565b5191565b92919261116682610710565b9161117460405193846106bf565b8294818452818301116100dd578281602093846000960137010152565b1561119857565b606460405162461bcd60e51b815260206004820152601260248201527f747765616b20697320746f6f206c6172676500000000000000000000000000006044820152fd5b156111e357565b606460405162461bcd60e51b815260206004820152601160248201527f7669657720746167206d69736d617463680000000000000000000000000000006044820152fd5b90604051916020830152602082526106f16040836106bf565b610df39461135f61135961135461033a9961134f6001600160f81b03196113166101fc9a6112cc6113679a6112c661138d9f6112c19061136d9f611142611129610de06112a9936020611296611142838c610c20565b0151986112a48a151561104e565b610c39565b6112b86020820151151561104e565b519d369161115a565b611b38565b91611ca1565b60408051602081019384529081019190915260e09290921b7fffffffff000000000000000000000000000000000000000000000000000000001660608301529181606481016101fc565b5190209261133770014551231950b75fc4402da1732fc9bebe198510611191565b166001600160f81b03198360001a60f81b16146111dc565b611227565b6124a8565b50611b38565b929091611b38565b90612554565b819391506040519283916020830195869091604092825260208201520190565b5190206001600160a01b031690565b601f82116113a957505050565b6000526020600020906020601f840160051c830193106113e4575b601f0160051c01905b8181106113d8575050565b600081556001016113cd565b90915081906113c4565b919091825192835167ffffffffffffffff811161069e57611419816114138554610edb565b8561139c565b6020601f821160011461146557816020939261145092600196979860009261145a575b50506000198260011b9260031b1c19161790565b84555b0151910155565b01519050388061143c565b601f1982169061147a85600052602060002090565b9160005b8181106114c057509183916001969798602096958895106114a7575b505050811b018455611453565b015160001960f88460031b161c1916905538808061149a565b9192602060018192868c01518155019401920161147e565b91909180546801000000000000000081101561069e576114fd91600182018155610ebe565b6115c357825167ffffffffffffffff811161069e57611526816115208454610edb565b8461139c565b6020601f821160011461155a57819061155693949560009261145a5750506000198260011b9260031b1c19161790565b9055565b601f1982169061156f84600052602060002090565b9160005b8181106115ab57509583600195969710611592575b505050811b019055565b015160001960f88460031b161c19169055388080611588565b9192602060018192868b015181550194019201611573565b634e487b7160e01b600052600060045260246000fd5b6106f1906116e46116cb6115eb611dc5565b93906115fc61114261112984610bb5565b6020810151909190156116e95761167961165c61166261161f61167e9551611fc3565b6101fc61162b86611fc3565b6040517f73743a6574683a307800000000000000000000000000000000000000000000006020820152948593602985015b90610fb7565b809761166c6106f3565b9384526020840152610fce565b6113ee565b6116c661168a82610bb5565b61169386610ff4565b906001600160a01b03167fffffffffffffffffffffffff0000000000000000000000000000000000000000825416179055565b610bb5565b6001600160a01b03166000526003602052604060002090565b6114d8565b61173491506117186116f9611dc5565b91909261167961165c61170e61161f87611fc3565b809a61166c6106f3565b6117206106f3565b918252602082015261167961112984610bb5565b61167e565b604051906117486040836106bf565b600b82527f76696577696e67507562580000000000000000000000000000000000000000006020830152565b604051906117836040836106bf565b600b82527f76696577696e67507562590000000000000000000000000000000000000000006020830152565b634e487b7160e01b600052601260045260246000fd5b6112cc906112c66112c170014551231950b75fc4402da1732fc9bebe1997966020611822611142611129610de06118379b9a85611814604051838d82378281858101600081520301902061101a565b0151996112a48b151561104e565b01519761183089151561104e565b369161115a565b51902090089061033a61184c61135484611227565b5061212d565b908160011b9180830460021490151715610b0a57565b908160031b917f1fffffffffffffffffffffffffffffffffffffffffffffffffffffffffffffff811603610b0a57565b908160081b918083046101001490151715610b0a57565b81810292918115918404141715610b0a57565b9060238201809211610b0a57565b9060018201809211610b0a57565b6004019081600411610b0a57565b9060048201809211610b0a57565b9060028201809211610b0a57565b91908201809211610b0a57565b929161191f61216a565b5060c0810161194c815160405190611936826106a3565b600082526000602083015260408201528361225b565b60405161197a6020828161196981830196878151938492016102e1565b81010301601f1981018352826106bf565b5190209261198661216a565b506040519060208201526020815261199f6040826106bf565b60008060405192866020850152602084526119bb6040856106bf565b611a11611a236020956101fc6040516119d489826106bf565b8681526040519485936119ff8b8601986119ee8a60049052565b6080604088015260a0870190610304565b90601f19868303016060870152610304565b90601f19848303016080850152610304565b51907301000000000000000000000000000000000000065afa90611a456123ed565b9115611a96575061033a9495611a5d611a6592612eda565b9485916130e8565b611a8f611a8a6040850192611a84611a7d8551610b0f565b9151611852565b90611908565b6118c2565b905261225b565b6064906040519062461bcd60e51b82526004820152600c60248201527f7369676e3a206661696c656400000000000000000000000000000000000000006044820152fd5b805115610ed65760200190565b805160021015610ed65760220190565b805160011015610ed65760210190565b805160031015610ed65760230190565b805160041015610ed65760240190565b908151811015610ed6570160200190565b906021825103611c7757602182015191805115610ed6576020015160f81c6000600282141580611c6c575b611c4457808060405160208101906020825260206040820152602060608201526401000003d019600781808b80098b090860808201527f3fffffffffffffffffffffffffffffffffffffffffffffffffffffffbfffff0c60a08201526401000003d01960c082015260c08152611bda60e0826106bf565b519060055afa90611be96123ed565b9115611c1c5750611c06611bff611c0c92611da2565b9283611908565b60011690565b611c135790565b61033a90610b3c565b807f102875ed0000000000000000000000000000000000000000000000000000000060049252fd5b807fab4be0410000000000000000000000000000000000000000000000000000000060049252fd5b506003821415611b63565b7fc88d458a0000000000000000000000000000000000000000000000000000000060005260046000fd5b90611cac92916129ae565b929160008415158581611d91575b5080611d89575b15611d4557938490816401000003d0196001835b611cf857505050506401000003d019929183915081808780098092099509900990565b611d0684839a94959a611faf565b918194611d4057611d336401000003d019611d2781611d3995870982610ba1565b889608959a80946118af565b90610ba1565b9283611cd5565b6117af565b606460405162461bcd60e51b815260206004820152600e60248201527f496e76616c6964206e756d6265720000000000000000000000000000000000006044820152fd5b506001611cc1565b6401000003d0199150141538611cba565b602081519101519060208110611db6575090565b6000199060200360031b1b1690565b602090600080604051611dd885826106bf565b818152604051611dfc816101fc888201948986526040808401526060830190610304565b51907301000000000000000000000000000000000000015afa90611e1e6123ed565b9115611ec157611e36611e3083611da2565b926124a8565b508093600360ff611e60611e5a611e4c86611ada565b516001600160f81b03191690565b60f81c90565b1614611e6a575050565b919350916021611e9c6101fc611e97611e85611ebe95610b54565b60405192839188830160209181520190565b611da2565b930151916101fc6040519384928301602191600160f91b825260018201520190565b91565b6064836040519062461bcd60e51b82526004820152601360248201527f72616e646f6d42797465733a206661696c6564000000000000000000000000006044820152fd5b60408051909190611f1683826106bf565b6001815291601f1901366020840137565b60405190611f366020836106bf565b6000808352366020840137565b90611f4d82610710565b611f5a60405191826106bf565b828152601f19611f6a8294610710565b0190602036910137565b60405190611f836040836106bf565b601082527f30313233343536373839616263646566000000000000000000000000000000006020830152565b8115611d40570490565b8115611d40570690565b9081518060011b9080820460021490151715610b0a57611fe290611f43565b611fea611f74565b9260005b815181101561207b5780612024611e4c61201e612013611e5a611e4c60019789611b27565b60ff8a519116611faf565b88611b27565b61203b61203083611852565b9160001a9186611b27565b53612060611e4c61201e612055611e5a611e4c8689611b27565b60ff8a519116611fb9565b61207461203061206f84611852565b6118d0565b5301611fee565b5090925050565b9061211a6000949385946121066040519485936120d160208601987fc67ea9d1000000000000000000000000000000000000000000000000000000008a526080602488015260a4870190610304565b9160448601527fffffffffffffffffffffffffffffffffffffffffffffffffffffffffffffffdc858303016064860152610304565b90608483015203601f1981018352826106bf565b51906a636f6e736f6c652e6c6f675afa50565b6121636101fc6121446001600160a01b0393611b38565b6040939193519283916020830195869091604092825260208201520190565b5190201690565b60405190612177826106a3565b60006040838281528260208201520152565b604051610140919061219b83826106bf565b6009815291601f19018260005b8281106121b457505050565b8060606020809385010152016121a8565b805160011015610ed65760400190565b805160021015610ed65760600190565b805160031015610ed65760800190565b805160041015610ed65760a00190565b805160051015610ed65760c00190565b805160061015610ed65760e00190565b805160071015610ed6576101000190565b805160081015610ed6576101200190565b8051821015610ed65760209160051b010190565b6123b1602061033a9361235760a0612271612189565b9561229c61229761228a835167ffffffffffffffff1690565b67ffffffffffffffff1690565b612636565b6122a588611ada565b526122af87611ada565b506122bc85820151612636565b6122c5886121c5565b526122cf876121c5565b506122eb61229761228a604084015167ffffffffffffffff1690565b6122f4886121d5565b526122fe876121d5565b5061231b61231660608301516001600160a01b031690565b6126e7565b612324886121e5565b5261232e876121e5565b5061233c6080820151612636565b612345886121f5565b5261234f876121f5565b500151612728565b61236085612205565b5261236a84612205565b506123786040820151612636565b61238185612215565b5261238b84612215565b506123968151612636565b61239f85612225565b526123a984612225565b500151612636565b6123ba82612236565b526123c481612236565b50612886565b9060098210156123d75752565b634e487b7160e01b600052602160045260246000fd5b3d15612418573d906123fe82610710565b9161240c60405193846106bf565b82523d6000602084013e565b606090565b81601f820112156100dd57805161243381610710565b9261244160405194856106bf565b818452602082840101116100dd5761033a91602080850191016102e1565b9190916040818403126100dd57805167ffffffffffffffff81116100dd578361248991830161241d565b92602082015167ffffffffffffffff81116100dd5761033a920161241d565b600080916040516124d6816101fc60208201946124c68660046123ca565b6040808401526060830190610304565b51907301000000000000000000000000000000000000055afa6124f76123ed565b90156125105780602080610cde9351830101910161245f565b606460405162461bcd60e51b815260206004820152601b60248201527f67656e207369676e696e67206b6579706169723a206661696c656400000000006044820152fd5b92909180840361261857506401000003d019908208612577575050600090600090565b6401000003d019818009906401000003d01960008180808087890960040996800960030908926401000003d0198180086401000003d019036401000003d0198111610b0a576401000003d01990818680090890816401000003d019036401000003d0198111610b0a5760016401000003d01980969381610cde998180979661260782808a819b0960080983610ba1565b940890090894096002099190612a35565b612630916401000003d01993918492610cde96612b2b565b91612a35565b90612651610e41926040519384916020830160209181520190565b6000915b602083106126b6575b61266f61266a84610b84565b611f43565b9060005b82518110156126a957600190612695611e4c61268e886131e5565b9785611b27565b60001a6126a28286611b27565b5301612673565b505061033a919250612728565b916126d46126c7611e4c8386611b27565b6001600160f81b03191690565b6126e15760010191612655565b9161265e565b61033a907fffffffffffffffffffffffffffffffffffffffff0000000000000000000000006040519160601b166020820152601481526127286034826106bf565b6000815160018114908161286e575b5015612741575090565b815190929160388210156127a257906101fc61033a9261165c9495612785612775608060ff61276e611f05565b9716613206565b60f81b6001600160f81b03191690565b901a61279084611ada565b535b6040519485936020850190610fb7565b91836001945b6127b28685611faf565b156127cf576127c36127c9916131e5565b95611898565b946127a8565b909294509290926127e261266a826118d0565b926127fc6127756127f7608060ff8616613206565b6131f4565b811a61280785611ada565b5360015b828111156128295750505061165c929350906101fc61033a92612792565b8061285761277561285161285161284b612846612869978a610ba1565b61321a565b8c611faf565b60ff1690565b831a6128638288611b27565b536131e5565b61280b565b905015610ed6576080602083015160f81c1038612737565b61288f90613229565b805160006038821015612905579061033a916128ba61277560c060ff6128b3611f05565b9516613206565b901a6128c582611ada565b535b602060405193826128e186945180928580880191016102e1565b83016128f5825180938580850191016102e1565b010103601f1981018352826106bf565b60019390929091835b6129188683611faf565b1561292f576127c3612929916131e5565b9461290e565b91939092945061294161266a836118d0565b926129566127756127f760c060ff8716613206565b821a61296185611ada565b5360015b8381111561297a575050505061033a906128c7565b8061299d6127756128516128516129976128466129a9978b610ba1565b87611faf565b841a6128638288611b27565b612965565b919290926001928015612a2d57600094600194869392805b6129d35750505050929190565b60018116612a00575b60006129f5926401000003d0199260011c958695612e55565b9093919290916129c6565b93612a1d6401000003d0198386866129f5969b60009d8597612cc1565b90995097909590925090506129dc565b509150600190565b91939291841515838682612ac0575b505080612ab7575b15611d455760009483159081856001835b612a7a5750505050611d4057829081808780098092099509900990565b612a8784839b959b611faf565b918193611d4057611d3389612aa281612aaf95870982610ba1565b60009708949b80946118af565b929183612a5d565b50821515612a4c565b141590508338612a44565b604051906080612adb81846106bf565b368337565b15612ae757565b606460405162461bcd60e51b815260206004820152601e60248201527f557365206a6163446f75626c652066756e6374696f6e20696e737465616400006044820152fd5b9391909492841580612cb9575b612cad57811580612ca5575b612c9a57612b50612acb565b958315611d40578380938160018009808a529882808b6001099460208301958652604083018c81529a82808e6001099160608601928352612b916080610702565b9d5190098c5251900960208a0152519009604087015251900960608401528251936040840194855114801590612c88575b612bcb90612ae0565b81612bd4612acb565b9551612be1865183610ba1565b90088552816060850151612c7d8288818060208b0195612c02875183610ba1565b900899602083019a8b5281808c8180808089518a5190099360408a01948552612c328286518c5190099a60600190565b998a52518009612c43895183610ba1565b9008612c59828088518651900960020983610ba1565b90089d51935190519009612c6d8d83610ba1565b9008900993519051900983610ba1565b900894510991929190565b50602084015160608501511415612bc2565b505050909190600190565b508015612b44565b90945092506001919050565b508515612b38565b9694969593909195801580612e4d575b612e4157831580612e39575b612e2e57612ce9612acb565b928515611d405788948694858093818c800983528183518d0995602084019687528280604086019b81818009808e5290099160608601928352612d2c6080610702565b9b5190098a5251900960208801525190096040850152519009606082015281815195612d588360400190565b96875114801590612e1c575b612d6d90612ae0565b81612d76612acb565b9751612d83855183610ba1565b90088752816060840151612e0f828a818060208a0195612da4875183610ba1565b90089860208301998a5281808b8180808089518a5190099360408a01948552612dd48286518c5190099a60600190565b998a52518009612de5895183610ba1565b9008612dfb828088518651900960020983610ba1565b90089c51935190519009612c6d8c83610ba1565b9008965192969509900990565b50602083015160608401511415612d64565b935050945050929190565b508115612cdd565b50959450509050929190565b508215612cd1565b9093919492948015612ed2578215611d4057828086800992818080808680099a8180808a88096004099c800990099280096003090891838780088403848111610b0a57849081858009089081850390858211610b0a578580918009600809850390858211610b0a5785948580949281939b08900908940960020990565b909450919050565b90612ee361216a565b916008815110613092577f30000000000000000000000000000000000000000000000000000000000000006001600160f81b0319612f23611e4c84611ada565b160361309257600160f91b6001600160f81b0319612f43611e4c84611ae7565b160361309257612f5b612851611e5a611e4c84611af7565b612f6d612851611e5a611e4c85611b07565b906021821161309257612f7f826118de565b612f94612851611e5a611e4c61201e856118d0565b916021831161309257600160f91b612fb26126c7611e4c8589611b27565b036130925780612fca612fc58587611908565b6118ec565b0361309257612fda8551916118fa565b0361309257612fe8906118fa565b6004602184146130bc575b60218314613057575b906020809286010151940101519160208110613040575b5060208110613028575b509083526020830152565b61303461303991610b84565b611868565b1c3861301d565b61303461304f91949294610b84565b1c9138613013565b916001600160f81b031961306e611e4c8488611b27565b1661309257602061308861308282946118d0565b92610b92565b9391925050612ffc565b7f86cd05c50000000000000000000000000000000000000000000000000000000060005260046000fd5b506001600160f81b03196130d2611e4c86611b17565b16613092576130e2600593610b92565b92612ff3565b91906040820191601b8352805191602060008184019485519061312d604051928392601b88859094939260ff6060936080840197845216602083015260408201520152565b838052039060015afa156102dc576000516001600160a01b03958616951685900361315a575b5050505050565b613192600093601c93846020975251905190604051948594859094939260ff6060936080840197845216602083015260408201520152565b838052039060015afa156102dc576000516001600160a01b0316036131bb573880808080613153565b7f4532600d0000000000000000000000000000000000000000000000000000000060005260046000fd5b6000198114610b0a5760010190565b60ff60379116019060ff8211610b0a57565b9060ff8091169116019060ff8211610b0a57565b601f8111610b0a576101000a90565b908151156132b757600091825b815184101561325f5761325760019161324f8685612247565b515190611908565b930192613236565b61326b91929350611f43565b9060208201926000935b82518510156132b0576132a860019161329e6132918887612247565b51602081519101836132c1565b61324f8786612247565b940193613275565b5092505090565b905061033a611f27565b915b60208110156132e757600019906020036101000a0190811990511690825116179052565b90918251815260208101809111610b0a579160208101809111610b0a5790601f198101908111156132c357610ac756fea264697066735822122026a02c3c42d569258b7f81628ebeb92e30d88e20d8841775125a5d0fe8d2f2b464736f6c634300081b0033",
  "linkReferences": {},
  "deployedLinkReferences": {}
}